:030000000245D6E0
:0C45D600787FE4F6D8FD75816E02461D6A
:100056000000000000000000002F00000000070064
:10006600070000147F147F1400242A7F2A120062DE
:10007600640813230036495522500000050300008A
:1000860000001C224100000041221C000014083E12
:1000960008140008083E0808000000A060000008D8
:1000A600080808080000606000000000000000006A
:1000B60000000000000000000000000000F8000042
:1000C6000000000000333000000000100C06100C89
:1000D6000600000000000000000040C07840C07824
:1000E6004000043F04043F040400007088FC08300C
:1000F6000000001820FF211E0000F008F000E018A4
:10010600000000211C031E211E0000F0088870005C
:1001160000001E2123241927211010160E000000AE
:1001260000000000000000000000000000E01804CD
:100136000200000000071820400000020418E0003A
:1001460000000040201807000000404080F080407A
:1001560040000202010F01020200000000F0000050
:1001660000000101011F0101010000000000000064
:10017600000080B0700000000000000000000000D9
:100186000000000101010101010100000000000062
:100196000000003030000000000000000000806019
:1001A6001804006018060100000000E0100808109E
:1001B600E000000F102020100F00001010F80000C3
:1001C60000000020203F202000000070080808885A
:1001D600700000302824222130000030088888482A
:1001E60030000018202020110E000000C02010F85A
:1001F600000000070424243F240000F8088888082B
:1002060008000019212020110E0000E0108888182F
:100216000000000F112020110E0000380808C83811
:1002260008000000003F00000000007088080888F1
:100236007000001C222121221C0000E0100808107A
:10024600E0000000312222110F00000000C0C000B3
:1002560000000000003030000000000000800000B8
:1002660000000000806000000000000080402010B8
:1002760008000001020408102000404040404040B1
:100286004000040404040404040000081020408014
:100296000000002010080402010000704808080849
:1002A600F0000000003036010000C030C828E81019
:1002B600E0000718272423140B000000C038E000D4
:1002C6000000203C23020227382008F8888888701E
:1002D6000000203F202020110E00C030080808082A
:1002E6003800071820202010080008F80808081011
:1002F600E000203F202020100F0008F88888E8083A
:100306001000203F20202320180008F88888E808DD
:100316001000203F200003000000C0300808083805
:10032600000007182020221E020008F80800000816
:10033600F808203F210101213F20000808F808089D
:1003460000000020203F2020000000000808F808D8
:100356000800C08080807F00000008F888C0281848
:100366000800203F20012638200008F80800000079
:100376000000203F20202020300008F8F800F8F880
:100386000800203F003F003F200008F830C000086A
:10039600F808203F200007183F00E0100808081062
:1003A600E0000F10202020100F0008F808080808A9
:1003B600F000203F210101010000E01008080810AC
:1003C600E0000F18242438504F0008F888888888E1
:1003D6007000203F2000030C3020007088080808B9
:1003E60038000038202121221C00180808F80808C7
:1003F60018000000203F2000000008F80800000850
:10040600F808001F202020201F000878880000C858
:100416003808000007380E010000F80800F8000848
:10042600F800033C0700073C030008186880806852
:10043600180820302C03032C30200838C800C83890
:1004460008000000203F2000000010080808C838F7
:1004560008002038262120201800000000FE020295
:1004660002000000007F40404000000C30C0000049
:100476000000000000010638C00000020202FE0073
:100486000000004040407F0000000000040202021D
:100496000400000000000000000000000000000052
:1004A600000080808080808080800002020400003E
:1004B6000000000000000000000000008080808036
:1004C60000000019242222223F2008F80080800024
:1004D6000000003F112020110E00000000808080E7
:1004E6000000000E112020201100000000808088EE
:1004F600F800000E112020103F2000008080808030
:100506000000001F222222221300008080F088882B
:1005160088180020203F2020000000008080808076
:100526008000006B94949493600008F800808080AB
:100536000000203F210000203F2000809898000006
:1005460000000020203F2020000000000080989836
:10055600000000C08080807F000008F800008080D6
:100566008000203F24022D302000000808F80000FB
:1005760000000020203F20200000808080808080B6
:100586008000203F20003F20003F80800080808048
:100596000000203F210000203F2000008080808056
:1005A6000000001F202020201F0080800080800087
:1005B600000080FFA12020110E0000000080808036
:1005C6008000000E112020A0FF80808080008080A7
:1005D600800020203F2120000100000080808080D4
:1005E60080000033242424241900008080E08080C9
:1005F60000000000001F2020000080800000008016
:100606008000001F202020103F2080808000008076
:10061600808000010E300806010080800080008086
:1006260080800F300C030C300F000080800080802B
:1006360080000020312E0E31200080808000008056
:10064600808080818E701806010000808080808006
:1006560080000021302C2221300000000000807C28
:10066600020200000000003F404000000000FF00C2
:10067600000000000000FF0000000002027C800075
:1006860000000040403F0000000000060101020299
:100696000404000000000000000004244484649C5C
:1006A60040300FC8080828180000000000000000AD
:1006B6000000000000000000000010080601824C47
:1006C60020180601061820408000000000000000E7
:1006D60000000000000000000000404042CC000086
:1006E600FC040200FC0404FC000000000000000002
:1006F600000000000000000000000040201F204015
:100706004F4442407F424443400000000000000046
:10071600000000000000000000008060F80704E40C
:10072600242424FF242424E4040000000000000004
:10073600000000000000000000000000FF008081B3
:100746004529112F414181818000000000000000F1
:10075600000000000000000000000000FE2222222F
:1007660022FE22222222FE000000000000000000DD
:100776000000000000000000000080601F0202026E
:10078600027F020242827F0000000000000000009B
:1007960000000000000000000000109453321E32DA
:1007A6005210007E4242427E00000000000000001F
:1007B60000000000000000000000000000FF4949A2
:1007C6004949494949FF00000000000000000000B7
:1007D6000000000000000000000008CC4A49484A1A
:1007E600CC18007F88888482E000000000000000AA
:1007F6000000000000000000000000FF12125292EC
:100806007F00007E88888482E000000000000000EF
:10081600000000000000000000004030119690909B
:10082600919690909814135030000000000000003C
:10083600000000000000000000000404040404445A
:10084600847E060504040404040000000000000081
:100856000000000000000000000000020202122258
:10086600C20202020202FE000000000000000000B8
:100876000000000000000000000000081808040442
:100886000402024181403F00000000000000000019
:1008960000000000000000000000008060F8072053
:1008A600222C20FF20282422000000000000000047
:1008B60000000000000000000000010000FF02022E
:1008C600020202FF02020202020000000000000013
:1008D600000000000000000000008060F807000033
:1008E6007E42424242427E000000000000000000BC
:1008F600000000000000000000000000FF0000FEF5
:1009060042424242424242FE000000000000000015
:1009160000000000000000000000000000FE0000D3
:1009260000000000000000000000000000000000C1
:10093600000000000000000000000000003300007E
:1009460000000000000000000000000000000000A1
:1009560000000000000000000000202022A66A22FD
:10096600227E212169A52120200000000000000030
:1009760000000000000000000000020201FF4949DB
:10098600497F494949FF01020200000000000000BA
:1009960000000000000000000000048484E48F844E
:1009A600840404C44F4444C4040000000000000052
:1009B600000000000000000000008040300F408072
:1009C6007F0000FF404040FF0000000000000000E4
:1009D6000000000000000000000020102CE7242486
:1009E60000F01010FF1010F00000000000000000E2
:1009F600000000000000000000000101017F21113D
:100A060000070202FF0202070000000000000000CB
:100A16000000000000000000000080828282FE824A
:100A260082828282FE8282828000000000000000B4
:100A360000000000000000000000008040300F00B1
:100A460000000000FF0000000000000000000000A1
:100A5600000000000000000000001010F01F10F061
:100A66000040E05847405060C00000000000000011
:100A760000000000000000000000402215081621BA
:100A86000000FE42424242FE00000000000000005C
:100A960000000000000000000000404042CC004082
:100AA600A09E8282829EA0202000000000000000FE
:100AB600000000000000000000000000003F9088D9
:100AC60040432C10284641808000000000000000B2
:100AD60000000000000000000000001715D5555763
:100AE600557D555755D5151700000000000000002C
:100AF600000000000000000000004040407F555507
:100B060055555555557F40404000000000000000F7
:100B16000000000000000000000000FC848484FC4B
:100B2600001010101010FF10100000000000000050
:100B360000000000000000000000003F1010103F01
:100B46000000010640807F00000000000000000059
:100B56000000000000000000000000F8010600F0A0
:100B6600121212F2020202FE000000000000000053
:100B76000000000000000000000000FF0000001F51
:100B86001111111F0040807F0000000000000000CE
:100B96000000000000000000000000F808080CCA71
:100BA600494848C8080808F800000000000000008E
:100BB6000000000000000000000000FF0000001F11
:100BC6000808081F0040807F0000000000000000A9
:100BD600000000000000000000000404FC4546245C
:100BE6002404807E2AAA2AFE0000000000000000DD
:100BF60000000000000000000000808292929292A5
:100C060092FF929292929382800000000000000070
:100C1600000000000000000000004042CC0000FC84
:100C26005655FC801010FF10100000000000000058
:100C36000000000000000000000000003F102A1322
:100C46004A867F0043807F0000000000000000000D
:100C5600000000000000000000001060020CD00C34
:100C6600E4242526241404140C00000000000000CF
:100C76000000000000000000000004047C03088857
:100C86004F290909092F49890800000000000000C2
:100C96000000000000000000000000020CC0002060
:100CA60020E000FF70A01008000000000000000017
:100CB6000000000000000000000002027F00100893
:100CC6000641807F000106081000000000000000B9
:100CD600000000000000000000001010D0FF90107F
:100CE60040404040FF4040404000000000000000FF
:100CF60000000000000000000000040300FF0043A5
:100D0600404040407F40404040000000000000005E
:100D1600000000000000000000008886BAAAAABAF7
:100D2600AAABAABAAAAABA8A8600000000000000E6
:100D3600000000000000000000004040402EEA9A3B
:100D46004A1A2A4A4AAE90800000000000000000BD
:100D560000000000000000000000000004F494946D
:100D660094FC929292F30200000000000000000042
:100D76000000000000000000000000FE0212321217
:100D8600121F12121A3282FE00000000000000003C
:100D96000000000000000000000040504E4848FFE0
:100DA60048484840F80000FF00000000000000002E
:100DB6000000000000000000000000003E0202FFEC
:100DC60012221E000F40807F00000000000000007D
:100DD60000000000000000000000008060F80740EE
:100DE600300FF88888888808080000000000000096
:100DF60000000000000000000000010000FF0000ED
:100E06000000FF08080808080000000000000000B5
:100E160000000000000000000000000000000000CC
:100E2600C03FC000000000000000000000000000FD
:100E360000000000000000000000804020100C03AD
:100E4600000000030C10204080000000000000009D
:100E5600000000000000000000000000000000008C
:100E6600000000000000000000000000000000007C
:100E76000000000000000000000000003636000000
:100E8600000000000000000000000000000000005C
:100E9600000000000000000000008060F807000469
:100EA60074545556545474040000000000000000A9
:100EB600000000000000000000000000FF00030129
:100EC6000545857D050505010300000000000000BD
:100ED60000000000000000000000000000F000001C
:100EE60000FF4040404040000000000000000000BD
:100EF600000000000000000000004040407F40402D
:100F0600407F40404040404040000000000000005C
:100F1600000000000000000000004262524AC64283
:100F26005262C200F80000FF00000000000000004E
:100F36000000000000000000000040C444447F247C
:100F4600242420000F40807F0000000000000000E5
:100F560000000000000000000000100C04242424FF
:100F660025262424242404140C000000000000007C
:100F76000000000000000000000000818141310FE8
:100F86000101017F818181F1000000000000000065
:100F9600000000000000000000000000F8888888BB
:100FA600880808FF08090AC80800000000000000B9
:100FB6000000000000000000000080601F001020FC
:100FC6001F80402116182641F8000000000000008E
:100FD600000000000000000000001060028C008885
:100FE60088FF888800FE2222FE0000000000000024
:100FF6000000000000000000000004047E01001F45
:101006000808089F601F42827F0000000000000061
:101016000000000000000000000004E4242464A492
:10102600243F24A4642424E40400000000000000FB
:101036000000000000000000000000FF0008090991
:10104600097F09090948807F0000000000000000B0
:1010560000000000000000000000202020202020CA
:1010660020FF20202020202020000000000000007B
:101076000000000000000000000080804020100CEE
:101086000300030C102040808000000000000000D8
:101096000000000000000000000040301196909013
:1010A60091969090981413503000000000000000B4
:1010B60000000000000000000000040404040444D2
:1010C600847E0605040404040400000000000000F9
:1010D60000000000000000000000404042CC0080FC
:1010E6008888FF8888FF888880000000000000004C
:1010F600000000000000000000000040201F20400B
:10110600504C4340405F404040000000000000005B
:1011160000000000000000000000001088C433003A
:1011260040424242C24242424000000000000000EB
:1011360000000000000000000000020100FF0000A7
:10114600000040807F00000000000000000000005A
:10115600000000000000000000000000F010101069
:1011660010FF10101010F00000000000000000003A
:101176000000000000000000000000000F0404044E
:1011860004FF040404040F00000000000000000037
:101196000000000000000000000000FC848484FCC5
:1011A600001010101010FF101000000000000000CA
:1011B60000000000000000000000003F1010103F7B
:1011C6000000010640807F000000000000000000D3
:1011D600000000000000000000008040209088868B
:1011E600808080838C10204080000000000000007A
:1011F60000000000000000000000008040201807EA
:10120600004080403F000000000000000000000099
:10121600000000000000000000002424A4FE232299
:1012260000C03800FF000810600000000000000049
:1012360000000000000000000000080601FF010693
:101246008180404027100C030000000000000000D1
:1012560000000000000000000000000000E00000A8
:1012660000FF000000204080000000000000000099
:101276000000000000000000000008040300004019
:10128600807F0000000000010E000000000000004A
:101296000000000000000000000000FE222222FEE6
:1012A60000001010FF1010F0000000000000000009
:1012B60000000000000000000000203F2121111F57
:1012C600904020184780403F0000000000000000CA
:1012D6000000000000000000000000002424242478
:1012E60024FC22222223220000000000000000002D
:1012F600000000000000000000000202020202429C
:10130600827F0202020202020200000000000000C8
:1013160000000000000000000000000202C20202FD
:1013260002FE82828282820200000000000000002B
:10133600000000000000000000004040407F4040E8
:10134600407F404040404040400000000000000018
:1013560000000000000000000000080888C8380CE3
:101366000B0808E80808080808000000000000004C
:1013760000000000000000000000020100FF4041E4
:101386004141417F414141414000000000000000D1
:1013960000000000000000000000404424A4948CDB
:1013A60084FF848C94A424444000000000000000C4
:1013B600000000000000000000004040405F4A4A74
:1013C6004A4A4A4A4A5F4040400000000000000086
:1013D60000000000000000000000404042CC002059
:1013E600D04C4B48C80808F8000000000000000078
:1013F600000000000000000000000000007F201038
:101406001F1212125F80403F000000000000000023
:10141600000000000000000000000000F0101010A6
:1014260010FF10101010F000000000000000000077
:101436000000000000000000000000000F0404048B
:1014460004FF040404040F00000000000000000074
:10145600000000000000000000004042CC000044F4
:101466005454547F5454544440000000000000007B
:101476000000000000000000000000007F201000B7
:10148600FF15151555957F000000000000000000AF
:10149600000000000000000000002424A4FE232217
:1014A60000E22C203F2028E600000000000000009B
:1014B60000000000000000000000080601FF010611
:1014C60000FF09090949897F0000000000000000AB
:1014D60000000000000000000000000000FC2424C2
:1014E60024242222222322202000000000000000C3
:1014F600000000000000000000004020180700FE69
:10150600424242424242FE0000000000000000004B
:101516000000000000000000000000C0C000000045
:10152600C0C0000000C0C0000000000000000000B5
:1015360000000000000000000000000000000000A5
:101546000000000000000000000000000000000095
:10155600000000000000000000000000F8888888F5
:10156600880808FF08090AC80800000000000000F3
:101576000000000000000000000080601F00102036
:101586001F80402116182641F800000000000000C8
:1015960000000000000000000000080808F8080825
:1015A600081010FF101010F00000000000000000EE
:1015B600000000000000000000001030101F088826
:1015C60048300E014080403F00000000000000004F
:1015D60000000000000000000000000000FE000007
:1015E60000000000000000000000000000000000F5
:1015F60000000000000000000000000000330000B2
:1016060000000000000000000000000000000000D4
:10161600000000000000000000004040424242423C
:1016260042FE4242424242404000000000000000AA
:101636000000000000000000000080804020100C28
:101646000300030C10204080800000000000000012
:101656000000000000000000000020104C47545419
:101666005454545454D404040000000000000000F4
:101676000000000000000000000000000000000064
:1016860000000000000F3040F000000000000000E5
:101696000000000000000000000000FC8484FC0044
:1016A600445454547F545454440000000000000035
:1016B60000000000000000000000003F10103F0086
:1016C60000FF15151555957F00000000000000006D
:1016D6000000000000000000000002E22222222298
:1016E60022FE2222222222E2020000000000000046
:1016F6000000000000000000000000FF00000912CA
:10170600007F00091240807F0000000000000000FA
:1017160000000000000000000000100C055555D523
:10172600057F0555555505140C0000000000000006
:10173600000000000000000000001010108AA96BD5
:10174600352525ABE9081010100000000000000048
:101756000000000000000000000000FE0222DA0681
:1017660000FE2222222222FE0000000000000000CD
:101776000000000000000000000000FF081088477D
:10178600300F02020242827F0000000000000000CB
:101796000000000000000000000080808080FF80C4
:1017A60080A0908884828080800000000000000075
:1017B6000000000000000000000000000000FF40E4
:1017C6002112040810202040400000000000000004
:1017D600000000000000000000001060028C008085
:1017E600601800FF00008810600000000000000084
:1017F6000000000000000000000004047E010080DC
:1018060080404023100C0300000000000000000090
:10181600000000000000000000001010FF10908281
:10182600563A127F113955908000000000000000E2
:101836000000000000000000000042827F0100005E
:10184600FF49497F4949FF000000000000000000F1
:10185600000000000000000000000808F94A48C81F
:101866004820D8171010F0101000000000000000EB
:101876000000000000000000000040300F20403F44
:10188600804021160816214080000000000000005C
:1018960000000000000000000000829A9693FA52B1
:1018A60052807E121212F11110000000000000009A
:1018B60000000000000000000000000100FE9392FE
:1018C6009392929292FE0300000000000000000036
:1018D60000000000000000000000000010111610BB
:1018E60010F010101413100000000000000000009B
:1018F600000000000000000000008181414121112C
:101906000D030D11214141818100000000000000FE
:10191600000000000000000000000000F0000000D1
:1019260000FF00000000F0000000000000000000C2
:101936000000000000000000000000003F20202002
:10194600203F202020207F00000000000000000033
:101956000000000000000000000020C20C8002F21F
:101966001212FE12FE1212F2020000000000000027
:101976000000000000000000000004047E0100FFDB
:101986004A494848484949FF000000000000000055
:1019960000000000000000000000000202020282B7
:1019A6004222120A060200000000000000000000A9
:1019B6000000000000000000000000003846414022
:1019C60040404040404040780000000000000000D9
:1019D600000000000000000000000000FE8282827D
:1019E6008282828282FE0000000000000000000069
:1019F6000000000000000000000000003F404040E2
:101A06004040404040404078000000000000000098
:101A160000000000000000000000002018C7444439
:101A26004444FC4444444404000000000000000018
:101A36000000000000000000000004040407040485
:101A46000404FF0404040404040000000000000071
:101A560000000000000000000000000202C20202B6
:101A660002FE8282828282020000000000000000E4
:101A7600000000000000000000004040407F4040A1
:101A8600407F4040404040404000000000000000D1
:101A96000000000000000000000000000808080820
:101AA60008080808080808000000000000000000F8
:101AB60000000000000000000000101010101010C0
:101AC6001010101010101010100000000000000080
:101AD60000000000000000000000000484848484EC
:101AE6008484848484848404000000000000000050
:101AF6000000000000000000000020202020202020
:101B060020202020202020202000000000000000AF
:101B16000000000000000000000000FC040404FCBB
:101B2600040404FC040404FC00000000000000009F
:101B360000000000000000000000007F2824232091
:101B4600202020212222227F000000000000000029
:101B5600000000000000000000000002424242C2F5
:101B66007E42424242C20202000000000000000023
:101B760000000000000000000000404040407847A0
:101B860040404040407F40404000000000000000D0
:101B9600000000000000000000002020202020207F
:101BA60021222C2020202020200000000000000000
:101BB60000000000000000000000004020100C03A0
:101BC6000000000102041860000000000000000090
:101BD600000000000000000000008080808080403F
:101BE600FF404040202020200000000000000000B0
:101BF60000000000000000000000000000000000DF
:101C06003F40404040404078000000000000000097
:101C1600000000000000000000000000000000FCC2
:101C26000000007E800000000000000000000000B0
:101C3600000000000000000000000080601807009F
:101C460000000000030C304080000000000000008F
:101C5600000000000000000000000010101010FF3F
:101C660010101010F000000000000000000000003E
:101C7600000000000000000000008040201807005F
:101C8600000000003F4040407800000000000000D7
:101C960000000000000000000000404040404040BE
:101CA60040FF40404040404040000000000000002F
:101CB600000000000000000000000000000000001E
:101CC60000FF00000000000000000000000000000F
:101CD600000000000000000000000020100894A78B
:101CE600444444A4940C00000000000000000000DE
:101CF6000000000000000000000002020101202494
:101D0600244448881001010202000000000000007F
:101D16000000000000000000000000FE2222FE403D
:101D260048487F4848487F484800000000000000B7
:101D360000000000000000000000807F0282FF001B
:101D460000FF4949494949FF000000000000000022
:101D560000000000000000000000000000FE22223B
:101D6600222222222222FE000000000000000000A3
:101D7600000000000000000000008040300F02025A
:101D86000202020242827F00000000000000000002
:101D960000000000000000000000080889EA18881A
:101DA600000404FC040404FC000000000000000021
:101DB60000000000000000000000020100FF018694
:101DC600402018074080403F00000000000000004F
:101DD6000000000000000000000020202020FF205E
:101DE6002020202020FF20202000000000000000EE
:101DF6000000000000000000000000000000FF409E
:101E06004040404040FF000000000000000000008D
:101E160000000000000000000000808080808080BC
:101E2600808080808080808080000000000000002C
:101E3600000000000000000000000000000000009C
:101E4600000000000000000000000000000000008C
:101E56000000000000000000000080804020100804
:101E660024C3040810204080800000000000000009
:101E76000000000000000000000000000002020256
:101E8600028242221A060000000000000000000044
:101E96000000000000000000000000F80C0B08081D
:101EA600F840308F080808F8000000000000000025
:101EB60000000000000000000000007F2121212119
:101EC6007F0000004380403F00000000000000004B
:101ED60000000000000000000000000000FE8282FA
:101EE6008282828282FE0000000000000000000064
:101EF60000000000000000000000000000FF40405D
:101F06004040404040FF000000000000000000008C
:101F1600000000000000000000000004FF2424244C
:101F2600FF0400FE222222FE000000000000000046
:101F36000000000000000000000088482F09091971
:101F4600AF48300F0242827F000000000000000010
:101F5600000000000000000000000000007F49496A
:101F660049494949497F000000000000000000007F
:101F7600000000000000000000008141211D2141F9
:101F860081FF89898989898181000000000000001C
:0A1F96000000000000000000000041
:102315006200000000000000000000000000000056
:1023250000000000000000000000000000000000A8
:102335000000000000000000000000000000000098
:102345000000000000000000000000000000000088
:102355000000000000000000000000000000000078
:102365000000000000000000000000000000000068
:102375000000000000000000000000000000000058
:102385000000000000000000000000000000000048
:102395000000000000000000000000000000000038
:1023A5000000000000000000000000000000000028
:1023B5000000000000000000000000000000000018
:1023C5000000000000000000000000000000000008
:1023D50000000000000000000000000000000000F8
:1023E50000000000000000000000000000000000E8
:1023F50000000000000000000000000000000000D8
:1024050000000000000000000000000000000000C7
:1024150000000000000000000000000000000000B7
:1024250000000000000000000000000000000000A7
:102435000000000000000000000000000000000097
:102445000000000000000000000000000000000087
:102455000000000000000000000000000000000077
:102465000000000000000000000000000000000067
:102475000000000000000000000000000000000057
:102485000000000000000000000000000000000047
:102495000000000000000000000000000000000037
:1024A5000000000000000000000000000000000027
:1024B5000000000000000000000000000000000017
:1024C5000000000000000000000000000000000007
:1024D50000000000000000000000000000000000F7
:1024E50000000000000000000000000000000000E7
:1024F50000000000000000000000000000000000D7
:1025050000000000000000000000000000000000C6
:0425150000000000C2
:104B0C00ED131313541FFEED5407FD7401A8050893
:104B1C008002C333D8FCFDEFC39440503A75F008C3
:104B2C00EFA42400301416F582E5F03400F583E58B
:104B3C00822EF582E43583F583E04DF022F582E593
:104B4C00F03400F583E5822EF582E43583F583E0BD
:074B5C00FFEDF4FEEF5EF037
:014B6300222F
:104A4200E4F567E56724B0FFE4FD124FEBE4FDFFF8
:104A5200124FEBE4FD7F10124FEBE4F56875F0089E
:104A6200E568A42400F582E5F03400F583E58225AB
:104A720067F582E43583F583E0FF7D01124FEB0594
:104A820068E568C3944040D50567E567C39408406C
:104A9200B2E4F5677D01E4FF124FEB0567E567C3FA
:044AA200944040F00C
:014AA60022ED
:10540300EF4E60157D087C07ED1DAA0470011C4A50
:0954130070F6EF1F70EA1E80E73D
:01541C00226D
:10541D008F6BE56B7006FD7FA6124FEBE56BB4014C
:09542D0007E4FD7FA7124FEB22FA
:105234008F6CE56C700DFD7FC8124FEBE4FD7FA110
:10524400124FEBE56CB4010EE4FD7FC0124FEBE4AA
:07525400FD7FA0124FEB22C9
:08558C007F01AE071FEE70FA6B
:0155940022F4
:0F54F500D291D29012558CC29112558CC2902236
:0A558200C291D29012558CD29122F2
:0F550400D29112558CD29012558CC29002558CB8
:0252CC00AD072C
:1052CE00E4FCC290ED30E704D2918002C2911255F7
:1052DE008CD29012558CC290ED25E0FD0CBC08E2EC
:0152EE00229D
:104FDA00F583E58229F582E43583F583E493FF7D41
:014FEA0001C5
:104FEB00AB05AA071254F57F781252CC125504EB7D
:104FFB0060047F408002E4FF1252CC125504AF02D2
:09500B001252CC12550402558228
:1052EF00A907ED24B0FFE4FD124FEBE954F0C454CD
:1052FF000F4410FFE4FD124FEBE9540FFFE4FD02E2
:02530F004FEB62
:10000E00E4FD7F8D124FEBE4FD7F14124FEBE4FD08
:05001E007FAF024FEB73
:10003E00E4FD7F8D124FEBE4FD7F10124FEBE4FDDC
:05004E007FAE024FEB44
:1050DC00E4F9E924B0FFE4FD124FEBE4FDFF124FBD
:1050EC00EBE4FD7F10124FEBE4F5257D01E4FF129C
:0F50FC004FEB0525E525C3948040F009B908D393
:01510B002281
:043F64008F248D25F4
:103F6800E4F528E527C313FDF529E4F52AF52BE543
:103F780027B40808752C00752D068029E52713132A
:103F880013541FFF7E00E527540760059000018049
:103F980003900000E5822FFFE5833EFE7C0012209F
:103FA800E58E2C8F2DEB24E0F528AD25AF24125299
:103FB800EFE4F52AF52BC3E52B952DE52A952C5032
:103FC8005FE529FD7C00AE2AAF2B1220F7ED4C707F
:103FD8000FE52764086009AD250525AF241252EFC7
:103FE800E527B4080FE52875F006A42456F582E401
:103FF80034008013E527B4102775F010E528A424B1
:10400800B0F582E5F03400F583E582252BF582E5ED
:1040180083352A124FE4052BE52B709A052A8096E2
:014028002275
:045481008F6DA9057D
:105485007F017E00AD0119ED6009AD6D7C00122034
:03549500E580F1BE
:0154980022F1
:0846ED008F478D488A498B4A72
:1046F500E4F54FF550E54CB40803754F02E4F54D6C
:10470500E54DC3954B5069C3E54B954D14FD7F0AA7
:10471500125481AC49AD4ACFCDCFCECCCE1220F7C5
:104725007C007D0A1220F78D4EE5507025E54B146F
:10473500FFE54DC39F501BE54E7014E54CC3132593
:104745004F854DF0A42547FF854C277B20801875A4
:104755005001E54CC313254F854DF0A42547FFE5D2
:104765004E2430FB854C27AD48123F64054D8090A3
:014775002221
:0A4CAB008F198D1A8B1B8A1C891DBE
:104CB500E4F51FAB1BAA1CA91D851F827583001275
:104CC5002096602AAF1F051F8F82758300122096DC
:104CD500FB851E27AD1AAF19123F64E51EB4080403
:0E4CE50074068004E51EC3132519F51980C559
:014CF300229E
:064D3D008F258D268B2757
:104D4300E4F5281252EFE4F975F040E527A424A016
:104D5300F582E5F03406124FDA052809B910E9E5C2
:104D63002604FDAF251252EFE4F975F040E527A4C0
:104D730024C0F582E5F03406124FDA052809B9108C
:014D8300E946
:014D8400220C
:044AA7008F318B338D
:104AAB00E4F538F539E5345407700BE5341313137B
:104ABB00541FF53B800AE534131313541F04F53BC5
:104ACB008D3BE53BC395345037AD3BAF311252EFC5
:104ADB0085313AE53AC395335022AB35AA36A9371F
:104AEB000539E539AE387002053814F5828E83121C
:104AFB002096FF7D01124FEB053A80D7053B80C214
:014B0B002287
:0649DA008F3C8D3D8B3E79
:1049E000E4F543F544E53F131313541FFFE53F542B
:1049F0000760047E0180027E00EF2EF53FE4F5455E
:104A0000E545C3953F503AE545253DFDAF3C125283
:104A1000EFE4F546E546C3953E5022AB40AA41A9D6
:104A2000420544E544AE437002054314F5828E838B
:104A3000122096FF7D01124FEB054680D705458079
:014A4000BFB6
:014A41002252
:103E9400C2927FC87E00125403D292E4FD7FAE1218
:103EA4004FEBE4FDFF124FEBE4FD7F10124FEBE408
:103EB400FD7F40124FEBE4FD7F81124FEBE4FD7F69
:103EC400CF124FEBE4FD7FA1124FEBE4FD7FC8124C
:103ED4004FEBE4FD7FA6124FEBE4FD7FA8124FEBFE
:103EE400E4FD7F3F124FEBE4FD7FD3124FEBE4FD83
:103EF400FF124FEBE4FD7FD5124FEBE4FD7F801200
:103F04004FEBE4FD7FD9124FEBE4FD7FF1124FEB51
:103F1400E4FD7FDA124FEBE4FD7F12124FEBE4FD78
:103F24007FDB124FEBE4FD7F40124FEBE4FD7F207B
:103F3400124FEBE4FD7F02124FEBE4FD7F8D124F35
:103F4400EBE4FD7F14124FEBE4FD7FA4124FEBE48E
:103F5400FD7FA6124FEB1250DCE4FD7FAF024FEB66
:10388E005244590A002608250826103510331032E6
:10389E00103308320833082608311026082508266A
:1038AE001035103308320833083508333026082512
:1038BE00082610351033103210330832083308261C
:1038CE000831102608250826103510330832083323
:1038DE000826083140160C16041608150816102175
:1038EE00102208220423042108220823102308157D
:1038FE0008161021082108170816081508160815AD
:10390E000813081330160C16041608150816102185
:10391E001022082204230421082208231016102343
:10392E0008230822082208210816082140220C2309
:10393E00042308160822202308160823082208212B
:10394E001016081508161023102208210821082227
:10395E0008220823082340250C23042308210822CB
:10396E0020230822082308220821101608150816FD
:10397E0010211022082108210822082208230823DA
:10398E002000A8C0003F065B4F666D7D077F6F402D
:01399E000028
:1025190043028C00190043026F0000004102860249
:10252900410290004102910041028500410284006C
:1025390041028F0045027F0200000000C110C11155
:0A254900C11341027200C112C10F5C
:1053110090027AEFF0A3EDF0A3EBF0A3E527F0A361
:10532100E528F07B017A02797A7D057C0002520C36
:104E9C00120003E92406F9E43AFA122178C3940AC1
:104EAC00E5F09400500A7D967C007FB07E04801E55
:104EBC00120003E92406F9E43AFA122178D3946437
:104ECC00E5F09400400B7D967C007FD07E07124865
:024EDC0074223E
:10296000900287E0F523E523B4012B7D327C007FC4
:10297000207E031248747F647E001254037D327CF3
:10298000007F207E03124874900290E0640260038E
:10299000022BF002510CE52364036003022BF07D4F
:1029A00032FC7F207E031248747F647E0012540341
:1029B0007D327C007F207E03124874900288E0C341
:1029C000940A5003022A6D1250DC7B347D027F0A88
:1029D000124D3D7B357D027F19124D3D7B3B7D02C3
:1029E0007F28124D3D7B3C7D027F37124D3D7B3D64
:1029F0007D027F46124D3D7B447D047F0A124D3D92
:102A00007B457D047F19124D3D7B3E7D047F28125E
:102A10004D3D7B3F7D047F37124D3D7B1F7D047F05
:102A200046124D3D900288E02436FB7D047F55120E
:102A30004D3D900289E0FE75F00A84FFEE75F00AC4
:102A400084ADF0A3E0FE75F00A84F527EE75F00A78
:102A50008485F02875290AA3E0FE75F00A84F52A1A
:102A6000EE75F00A8485F02B7B0A022BED9002882C
:102A7000E064026003022BF01250DC7B5F7D027F7A
:102A80000A124D3D7B3E7D027F19124D3D7B607DDC
:102A9000027F28124D3D7B617D027F37124D3D7BC9
:102AA000627D027F46124D3D7B637D027F55124D54
:102AB0003D7B4C7D047F0A124D3D7B4D7D047F198B
:102AC000124D3D7B4E7D047F28124D3D900289E0E2
:102AD000244EFB7D047F37124D3D7B5B7D047F469A
:102AE000124D3D90028AE0B401047B5C8029900283
:102AF0008AE0B414047B50800990028AE0B41E0E70
:102B00007B517D047F55124D3D7B58022BA79002CF
:102B10008AE0B40B0E7B587D047F55124D3D7B5EE1
:102B2000022BA790028AE0B4150D7B5D7D047F55D2
:102B3000124D3D7B5E807090028AE0FFC39402409C
:102B400018EFD3940A50127B5C7D047F55124D3DE3
:102B500090028AE0244EFB804E90028AE0FFC394EC
:102B60000C401EEFD3941350187B587D047F5512F0
:102B70004D3D90028AE075F00A84E5F0244EFB801A
:102B80002690028AE0FFC394164023EFD3941D5091
:102B90001D7B5D7D047F55124D3D90028AE075F0EE
:102BA0000A84E5F0244EFB7D047F64124D3D1255EE
:102BB000C978737C027D017E007F07122070752723
:102BC00005900277E0FF75F00A84F528EF75F00AAA
:102BD0008485F029900276E0FF75F00A84F52AEFEB
:102BE00075F00A8485F02B7B02E4FD7F02125351BD
:012BF00022C2
:1052A700E4900285F0FF124EDE9002E5EFF0BF01B9
:1052B700031235107F01124EDE9002E5EFF0BF01B9
:0452C7000312423C50
:0152CB0022C0
:10399F00E4900285F07F05124E129002E5EFF0647D
:1039AF00017075900290E0706A30120A300F697FD3
:1039BF00011251E4801D7BFF7A38799375280075C9
:1039CF0029FC752AF07DFE7F541247767F01125134
:1039DF00E4D212C20F12556C1250DC7B467D027F6F
:1039EF000A124D3D7B477D027F19124D3D7B2B7D8A
:1039FF00027F28124D3D7B497D057F0A124D3D7B8D
:103A0F004A7D057F19124D3D7B4B7D057F28124D59
:103A1F003D80057F05122BF17F02124E129002E5B9
:103A2F00EFF06401703B900290E070303012322062
:103A3F000F2F7F021251E4D20F12556C1250DC7B04
:103A4F00487D027F0A124D3D7B207D027F19124D6A
:103A5F003D7B2B7D027F28124D3D80057F02122B6F
:103A6F00F17F04124E129002E5EFF0BF01057F04C3
:103A7F00122BF17F01124E129002E5EFF0BF0105FC
:103A8F007F01122BF17F03124E129002E5EFF0BF70
:073A9F0001057F03122BF16A
:013AA60022FD
:104C5D009002907403F0D213E490028FF07F011252
:104C6D0055D612556C1243861250DC7527107B41B8
:104C7D007D027F0A123F647527107B497D027F19E3
:104C8D00123F647B2F7D027F28124D3D7B307D02CC
:0E4C9D007F37124D3D7B317D027F46024D3D3B
:0E555E00E4900290F0C213FF1255D6022FAB5C
:10438600E4FFBF070790028FE0FE80027E0AEFFD82
:104396003395E0FC74EE2DF58274023CF583EEF065
:1043A6000FBF08DE90028FE0640170221250DC7BA2
:1043B600347D027F0A124D3D7B357D027F19124DF9
:1043C6003D7B3E7D027F28124D3D7B3F802890023B
:1043D6008FE0640270271250DC7B347D027F0A1264
:1043E6004D3D7B357D027F19124D3D7B617D027F00
:1043F60028124D3D7B627D027F37124D3D9002EEC5
:10440600E0FFA3E0FDA3E0FBA3E0F527A3E0F5288A
:0F441600A3E0F529A3E0F52AA3E0F52B0253510B
:103AA70090027F7403F090028FE0900280F0E4A30D
:103AB700F0A3F0A3F07B017A02797F7D05124F5DB9
:103AC700EF6402706012556C1250DC7B327D027F0E
:103AD7000A124D3D7B337D027F19124D3D7B347DAC
:103AE700027F28124D3D7B357D027F37124D3D7B8E
:103AF700367D027F46124D3D7B377D047F0A124D8E
:103B07003D7B387D047F19124D3D7B397D047F282D
:103B1700124D3D7B3A7D047F37124D3D7F647E0019
:103B270012540380031254997B017A02797F7D0531
:103B3700124F5DEF6402706012556C1250DC7B32DD
:103B47007D027F0A124D3D7B337D027F19124D3D69
:103B57007B347D027F28124D3D7B357D027F3712F6
:103B67004D3D7B367D027F46124D3D7B377D047F81
:103B77000A124D3D7B387D047F19124D3D7B397DFF
:103B8700047F28124D3D7B3A7D047F37124D3D7FE0
:103B9700647E0012540380031254997B017A0279E0
:083BA7007F7D057C0002520C39
:10402900900290E0B4020C900284E0600620110333
:10403900124B64900284E0605F90026FE07059A3B4
:10404900E07055A3E0705112510C1252811250DCEC
:104059007B127D027F0A124D3D7B137D027F19126F
:104069004D3D7B227D027F28124D3D7B0B7D057FD7
:104079000A124D3D7B0C7D057F19124D3D7B0D7D4F
:10408900057F28124D3D7B207D057F37124D3D7BF5
:10409900217D057F46124D3D3012451255E2EF64F0
:1040A90003703DC212C20F1250DC7B407D027F0AB1
:1040B900124D3D7B417D027F19124D3D7B467D02AC
:1040C9007F28124D3D7B477D027F37124D3D7B484E
:1040D9007D027F46124D3D7B497D027F55124D3D44
:0140E90022B4
:10525B00900290E0B40111A3E004F0E0C394054088
:10526B0007E4F0B210122FAB900290E0B40106905D
:06527B000285E004F022B0
:102FAB00900290E0FF703A90028CE0FE75F00A847C
:102FBB009002E6F0EE75F00A84A3E5F0F0A3740A34
:102FCB00F090028DE0FE75F00A849002E9F0EE7548
:102FDB00F00A84A3E5F0F0A3740AF090028E02309D
:102FEB00EBEF640160030230AB201006900286E029
:102FFB00600B90028CE075F00A84FF80027F0B90CF
:10300B0002E6EFF0201006900286E0600C90028C36
:10301B00E075F00A84AFF080027F0B9002E7EFF0CF
:10302B00A3740AF0201008900286E06401600B90F4
:10303B00028DE075F00A84FF80027F0B9002E9EFAE
:10304B00F0201008900286E06401600C90028DE085
:10305B0075F00A84AFF080027F0B9002EAEFF0A3C9
:10306B00740AF0201008900286E06402600B900254
:10307B008EE075F00A84FF80027F0B9002ECEFF07C
:10308B00201008900286E06402600C90028EE075BE
:10309B00F00A84AFF080027F0B9002EDEFF0805CC2
:1030AB00900290E0FF6402704C90026FE0FE75F0AE
:1030BB000A849002E6F0EE75F00A84A3E5F0F0A323
:1030CB00740AF0900270E0FE75F00A849002E9F049
:1030DB00EE75F00A84A3E5F0F0A3740AF090027188
:1030EB00E0FE75F00A849002ECF0EE75F00A84A312
:1030FB00E5F0F08007EFB403030243869002E6E0AD
:10310B00FFA3E0FDA3E0FBA3E0F527A3E0F528A3D5
:0E311B00E0F529A3E0F52AA3E0F52B125351AD
:013129002283
:10351000900290E0FF64017003023640EF64037094
:1035200003023640EF7005124DCC8048900290E0C7
:103530006402600302364090027F2011030235DCF2
:103540007402F090026FE0900280F0900270E090C0
:103550000281F0900271E0900282F0E4A3F07B011E
:103560007A02797F7D05FC12520CC2117F0412553C
:10357000D612556C1250DC7B0B7D027F0A124D3D3A
:103580007B0C7D027F19124D3D7B0D7D027F281241
:103590004D3D7B0E7D027F37124D3D7B0F7D027FBF
:1035A00046124D3D1250DC7B0B7D027F0A124D3DD1
:1035B0007B0C7D027F19124D3D7B0D7D027F281211
:1035C0004D3D7B297D027F37124D3D7B2A7D027F59
:1035D00046124D3D7B2B7D027F5580617401F0903A
:1035E000026FE0900280F0900270E0900281F09013
:1035F0000271E0900282F0E4A3F07B017A02797F0D
:103600007D05FC12520CD2117F081255D612556C52
:103610001250DC7B0B7D027F0A124D3D7B0C7D023C
:103620007F19124D3D7B0D7D027F28124D3D7B2081
:103630007D027F37124D3D7B217D027F46124D3D3D
:013640002267
:10423C00900290E0B4030302555E900290E0640299
:10424C00702812510C12556C1250DC7B107D027FC1
:10425C000A124D3D7B117D027F19124D3D7B127D63
:10426C00027F28124D3D7B138063900290E07032E8
:10427C001250141250DC7B107D027F0A124D3D7BD4
:10428C00117D027F19124D3D7B127D027F28124D4C
:10429C003D7B137D027F37124D3D7B2E7D027F557A
:1042AC00802F900290E06401702A1254AF1250DCFF
:1042BC007B107D027F0A124D3D7B117D027F19120E
:1042CC004D3D7B237D027F28124D3D7B247D027F5B
:0542DC0037124D3D22E8
:102BF1008F23900290E064016003022D8BE5231482
:102C0100607B147003022D2E147003022D7124FEBB
:102C11007003022CE0046003022D74900286E0240C
:102C210002FFE433FE7C007D031220F7EDF0125029
:102C3100DC7B107D027F0A124D3D7B117D027F19E5
:102C4100124D3D7B127D027F28124D3D7B137D028B
:102C51007F37124D3D900286E070047B2C801490EA
:102C61000286E0B401047B2D8009900286E0B40263
:102C7100097B2E7D027F55124D3D022D6C900286FF
:102C8100E02401FFE433FE7C007D031220F7EDF028
:102C91001250DC7B107D027F0A124D3D7B117D02BB
:102CA1007F19124D3D7B127D027F28124D3D7B1312
:102CB1007D027F37124D3D900286E070047B2C80AF
:102CC10014900286E0B401047B2D8009900286E015
:102CD100B402097B2E7D027F55124D3D022D6C9071
:102CE1000286E0FF248CF582E43402F583E004F0EF
:102CF100EF700B90028CE0D394174002E4F0900245
:102D010086E0FF64016004EFB40220900286E0FFD8
:102D1100248CF582E43402F583E0D3943B400C74B7
:102D21008C2FF582E43402F583E4F0803E90028634
:102D3100E0FF248CF582E43402F583E0701DEF702E
:102D41000890028C7417F08022900286E0248CF5A2
:102D510082E43402F583743BF08010900286E02413
:102D61008CF582E43402F583E014F012556C800393
:102D71001254AF90028CE0FDA3E0FBA3E0F527E441
:102D8100F5287F04125311022FAB900290E06403E7
:102D91007056E52324FD604A14602824037057907F
:102DA100028FE0FF70067E077F078003EF14FF901C
:102DB100028FEFF0E0FF7401A807088002C333D847
:102DC100FC801590028FE0045407F0E0FF7401A825
:102DD10007088002C333D8FCFF1255D6124386027E
:102DE100556C123AA702555E900290E07008E523F7
:072DF100B40303124C5D2244
:105014009002907401F090028604F0D210E49002A1
:1050240091F0900285F07F021255D612556C122F22
:10503400AB90028CE0FDA3E0FBA3E0F527E4F528A8
:055044007F0202531180
:1054AF00E4900290F0125391E4FF1255D612556C0E
:0354BF00022FAB0E
:104DCC0090028CE090026FF090028DE0900270F0F7
:104DDC0090028EE0900271F09002907402F09002BA
:104DEC008414F0C211124CF490026FE0FDA3E0FBAE
:104DFC00A3E0F527E4F528FF1253117F041255D6D2
:064E0C0012556C022FABF1
:104B6400900271E0D394004005E014F08024900298
:104B740070E0D394004009E014F0A3743BF0801279
:104B840090026FE0D394004009E014F0A3743BF06A
:104B9400A3F0122FAB900270E07018A3E070149091
:104BA400026FE0D39400400B7D327C007FE87E03EB
:044BB400124874220D
:10510C00E4900290F0900284F0C21190027F04F0BF
:10511C00FB7A02797F7D05124F5DE4F527F528FBBC
:0E512C00FD7F01125311E4FF1255D6022FAB86
:104CF40090027F7402F090028CE0900280F09002A7
:104D04008DE0900281F090028EE0900282F0E4A3A4
:104D1400F07B017A02797F7D05124F5DBF02167D1B
:104D2400147C007FB07E041248747D147C007FDC08
:094D34007E050248741254992214
:1053910090028CE0FDE4FF12519390028DE0FD7FBD
:0E53A1000112519390028EE0FD7F02025193A3
:1032A500E4FF1254C28F237F011254C28F247F0280
:1032B5001254C2E523D394175018E524943B5012B9
:1032C500EF943B500D90028CE523F0A3E524F0A389
:1032D500EFF07B257D027F19124D3D7B267D027F18
:1032E50028124D3D7B277D027F37124D3D7B287D82
:1032F500027F46124D3D7FDC7E051254031250DCE1
:10330500E4FB7D027F0A124D3D7B017D027F191290
:103315004D3D7B027D027F28124D3D7B037D027F63
:1033250037124D3D7B047D057F0A124D3D7B057DA2
:10333500057F19124D3D7B067D057F28124D3D7B8E
:10334500077D057F37124D3D7B087D057F46124D74
:103355003D7B097D057F55124D3D7B0A7D057F64CB
:10336500124D3D7FDC7E051254031250DC7B1C7D23
:10337500027F0A124D3D7B1D7D027F19124D3D7B5B
:103385001E7D027F28124D3D7B1F7D027F37124D2A
:103395003D7B147D027F46124D3D7B157D027F5599
:1033A500124D3D7B167D057F0A124D3D7B177D0530
:1033B5007F19124D3D7B187D057F28124D3D7B19E8
:1033C5007D057F46124D3D7B1B7D057F55124D3D8D
:0933D5007B1A7D057F64024D3D69
:0B556C007D0A7C007FE87E030248748B
:105499007D0A7C007FF47E011248747D0A7C007FBE
:0654A9002C7E0102487494
:105281007D647C007FDC7E051248747D647C007F38
:10529100B07E041248747D647C007FDC7E05124878
:0652A100747F0F0255D6D8
:103CAD0090027974E9F09002767412F0A37409F021
:103CBD009002757401F09002747412F0E490027326
:103CCD00F078237C00FD7B017A027973FE7F071269
:103CDD002070123BAF7F807E257D007C00124963F2
:103CED001253AF1253E81255401253317F2B125419
:103CFD00E57F98125049123E941250DC1232A57B8A
:103D0D00FF7A5279A77F041247F77BFF7A39799FA3
:103D1D007F071247F77BFF7A4E799C7F081247F792
:103D2D007BFF7A52795B7F021247F77BFF7A4079EE
:103D3D00297F031247F77BFF7A2979607F091247A4
:103D4D00F7752800752900752A00752B00752C1440
:103D5D007B017A0279877D057C001250AB7B017A5D
:103D6D0002797F7D051255B91255DC122FABE4FF98
:103D7D001255D67FDC7E051254037BFF7A38798E7F
:103D8D007D047C0012520C12556C7FF47E0112548E
:063D9D0003124F9C80FBA5
:095595008B88898C88898F888934
:1025530052029F86860086860086860086860086CF
:09256300860086860041029309FE
:03002B000255D0AB
:0655D00053BCEFD21532BE
:022DF800156E56
:102DFA00201503022FA8C215900292E0B4090040E0
:102E0A0003022F8A902E15F8282873022E5F022EAD
:102E1A0030022E42022E71022E30022E42022E88DB
:102E2A00022E30022E42AFBDEFFEADBE7C00E42D75
:102E3A00FFEC3E900295803FAFBDEFFEADBE7C0039
:102E4A00E42DFFEC3E900297F0A3EFF09002947409
:102E5A0001F0022F90AFBDEFFEADBE7C00E42DFF66
:102E6A00EC3E9002998010AFBDEFFEADBE7C00E44F
:102E7A002DFFEC3E90029BF0A3EFF0022F90AFBD26
:102E8A00EFFEADBE7C00E42DFFEC3E90029DF0A368
:102E9A00EFF090029DE0FEA3E07807CEC313CE13B5
:102EAA00D8F9A86EF6C394065013A86EE675F00317
:102EBA00A4249FF582E43402F583E014F09002938F
:102ECA00E014F06003022F907409F0A86EE4F6A8EB
:102EDA006EE6FFC394064003022F90EF75F003A439
:102EEA00249FF582E43402F583E0C39480502CE6F3
:102EFA00FF75F003A424A0F582E43402F583E0D33D
:102F0A0094804044EF75F003A424A1F582E43402CE
:102F1A00F5837401F09002B1F0802DA86EE6FF757A
:102F2A00F003A424A0F582E43402F583E0C394807C
:102F3A005016EF75F003A424A1F582E43402F58358
:102F4A007402F09002B114F0A86EE6FF75F003A4C3
:102F5A00249FF582E43402F583E0FEEF75F003A4C2
:102F6A0024A0F582E43402F583EEF0E675F003A4BA
:102F7A00249FF582E43402F5837486F006022ED982
:102F8A0090029274FFF0900292E0D3940740037487
:0E2F9A00FFF0900292E004F090559593F5BC84
:032FA800056E2291
:02551300156E13
:0A5515009002B1E0A86EF6FFE4F08A
:03551F00056E22F4
:02552200156E04
:0A552400900294E0A86EF6FFE4F098
:03552E00056E22E5
:105049008F9D75BC88439720D2AD90024674FFF0BE
:10505900A3742DF0A374F8F0A374FFF0A37455F0B2
:10506900A37413F0A374FFF0A37455F0A37422F092
:015079002214
:070003007B017A02799522CE
:104E1200C3EF64809480403BD3EF64809485503329
:104E2200EFFD3395E0FC9002A175F003ED12230330
:104E3200EC75F003A42583F583E0FE9002A175F0E2
:104E420003ED122303EC75F003A42583F583E4F04C
:054E5200AF06227F0302
:014E57002238
:0451BC00156E156EE9
:1051C0001255A7A86EA60608A607A86EE6FE08E672
:0F51D000FF4E600BEF24FFFFEE34FFFE1255B0D1
:0551DF00056E056E22C3
:1053310053B1EF43B2101255E8E4F5D975DA49D209
:10534100DE90024074FFF0A37451F0A374BCF0220C
:084874008E298F2A8C2B8D2C5C
:10487C001255A7EF4E7066AF2CAE2B1255B0C3E598
:10488C002A940AE5299400404BE47B18FAF9F89035
:10489C00398F1222E712222EC006C007AE29AF2A8A
:1048AC00AB07AA06E4F9F8D007D00612222EAB0704
:1048BC00AA06AFF9EFFEADE97C00E42DFFEC3ECF8C
:1048CC002BCF3AAD07FCAF03AE021254D4D2D8436F
:0F48DC00DA0180061255E853DAFE7F02227F03CD
:0148EB0022AA
:0C002E001255A7EF4E7002FF227F012246
:10256C005C02B40007000000000000000000000046
:10257C00000000000000000000000000000000410E
:07258C0002B2644102B30A30
:04312A00156E156E9B
:10312E009002B2E014F0D36480948050107464F076
:10313E00A3E014F0648094805003740AF0E4F580E8
:10314E009002CFE0FFB40800505F90315FF828285E
:10315E007302317702317D02318302318902318F60
:10316E000231990231A30231ADC2A3C2A28016C2AE
:10317E00A3C2A2801AC2A3C2A2801EC2A3C2A280F0
:10318E0022C2A3D2A2C2A1C2A08020C2A3D2A2C236
:10319E00A1D2A08016C2A3D2A2D2A1C2A0800CC27C
:1031AE00A3D2A2D2A1D2A08002D2A3C3EF648094F4
:1031BE008850479002CFE0FF3395E0FE74BF2FF5A5
:1031CE008274023EF583E0FD9002B3E0FCD3ED6421
:1031DE0080F8EC648098402074B62FF58274023E1D
:1031EE00F583E0FF3395E0FE74932FF58274393E3C
:1031FE00F583E493F580806E80699002CFE0FF64E2
:10320E00087060EF3395E0FE74B62FF58274023EBF
:10321E00F583E0A86EF6A86E08E4F6A86E08E6FF41
:10322E00C39408503774C72FF582E43402F583E057
:10323E00FF9002B3E0FED3EF6480F8EE6480985006
:10324E0015A86E08E6FF7401A807088002C333D8DC
:10325E00FCF4A86E56F6A86E080680BFA86EE6F5BA
:10326E00808003E4F5809002B5E0FF9002CFE00489
:10327E00FEF0D3EF6480F8EE6480984015E0D364DE
:10328E0080948850057408F080089002B4E0900293
:02329E00CFF06F
:0532A000056E056E2221
:1053E800E4F5937594FF5395F043960F90022B7450
:0B53F800FFF0A37431F0A3742AF02230
:09559E009002B4EFF0A3EDF0223D
:105351009002B6EFF0A3EDF0A3EBF0A3E527F0A3E5
:10536100E528F0A3E529F0A3E52AF0A3E52BF02237
:0655D6009002BEEFF0227E
:1044B800EFF5823395E0F583E582F4458360059056
:1044C80002BFEFF0EDFF3395E0FEEFF44E6005908C
:1044D80002C0EDF0EBFF3395E0FEEFF44E6005907F
:1044E80002C1EBF0AF54EF3395E0FEEFF44E6006F7
:1044F8009002C2E554F0AF55EF3395E0FEEFF44E6D
:1045080060069002C3E555F0AF56EF3395E0FEEF35
:10451800F44E60069002C4E556F0AF57EF3395E0CD
:10452800FEEFF44E60069002C5E557F0AF58EF3342
:0F45380095E0FEEFF44E60069002C6E558F022C3
:10454700EFF5823395E0F583E582F44583600590C6
:1045570002CEEFF0EDFF3395E0FEEFF44E600590ED
:1045670002CDEDF0EBFF3395E0FEEFF44E600590E2
:1045770002CCEBF0AF5CEF3395E0FEEFF44E600654
:104587009002CBE55CF0AF5DEF3395E0FEEFF44EC4
:1045970060069002CAE55DF0AF5EEF3395E0FEEF8F
:1045A700F44E60069002C9E55EF0AF5FEF3395E029
:1045B700FEEFF44E60069002C8E55FF0AF60EF33A0
:0F45C70095E0FEEFF44E60069002C7E560F0222B
:102593004103070049030894940094940094940021
:0425A3004103061ECC
:02364100156E04
:1036430020B206900308E014F020B30690030BE0C9
:1036530014F020970690030EE014F0900306E01494
:10366300F06003023765741EF0A86EE4F6A86EE6F8
:10367300FFC3648094834003023765EF3395E0FE14
:1036830090030875F003EF122303EE75F003A425EE
:1036930083F583E0C39480503B90030975F003EFF7
:1036A300122303EE75F003A42583F583E0D39480FE
:1036B300405EE6FF3395E0FE90030A75F003EF12D8
:1036C3002303EE75F003A42583F5837401F09003BF
:1036D30007F0803CA86EE6FF3395E0FE9003097582
:1036E300F003EF122303EE75F003A42583F583E0C3
:1036F300C39480501B90030A75F003EF122303EE6B
:1037030075F003A42583F5837402F090030714F086
:10371300A86EE6FFFD3395E0FC90030875F003ED1A
:10372300122303EC75F003A42583F583E0FE9003D5
:103733000975F003ED122303EC75F003A42583F55B
:1037430083EEF0EF3395E0FE90030875F003EF127C
:103753002303EE75F003A42583F5837494F0060226
:023763003670BE
:03376500056E22CC
:02553100156EF5
:0A553300900307E0A86EF6FFE4F015
:03553D00056E22D6
:1053AF0090023174FFF0A37455F0A37431F09002A2
:0D53BF002E74FFF0A37436F0A37441F022A9
:104EDE00EF600764016003BF0233EFFD3395E0FC22
:104EEE0090030A75F003ED122303EC75F003A4256D
:104EFE0083F583E0FE90030A75F003ED122303ECB5
:0F4F0E0075F003A42583F583E4F0AF06227F033B
:014F1D002271
:1025A7004102000A41022A0A41026E0A040E000093
:1025B70000000113004602680000FFFF8FFFC10DF6
:1025C700C105C108C101C10E60240205FF000AFF51
:1025D700000AFF000AFF000AFF000AFF000AFF00C7
:1025E7000AFF000AFF000AFF000AFF000AFF000AAD
:1025F7006036022BFF000AFF000AFF0026FF000AD1
:10260700FF0026FF000AFF0026FF000AFF000AFF5F
:10261700000AFF0026FF0026FF0026FF0026FF0016
:0A2627000AFF000AFF000AFF000A84
:01000A0022D3
:030026007F002236
:104D8500438E805389F07BE07A2879017800903949
:104D95008F1222E7124E58EFF404F58A7BE07A2849
:104DA5007901780090398F1222E7124E58C3E49F9B
:104DB500FFE49EFE74019DFDE49CFC78081222D35D
:074DC5008F8CD28CD2A922D1
:03000B00024C0B99
:044C0B00C0E0C0D075
:104C0F00D5080A75084C300D020513D20DA2037298
:104C1F00045036150AE50A7030850C0AD207300A9F
:104C2F0017E50D6007150D438F01801D538FFEC2D1
:104C3F00B5D51515C20A8011050BE50BD3940640A7
:094C4F0008C203E5126002D2065E
:054C5800D0D0D0E032D5
:104BB800300E47C20E90398F1222E778101222D396
:104BC8008E698F6A900203E0FEA3E0FFE4FCFD7BA0
:104BD80019FAF9F81221A3C006C007AE69AF6AAB8B
:104BE80007AA06E4F9F8D007D006124E587803123F
:104BF80022D3900266EEF0A3EFF0900266E0FEA3E7
:024C0800E0FFCB
:014C0A002287
:0955A700900268E0FEA3E0FF227F
:0955B000900268EEF0A3EFF02276
:1054D40090026CEEF0A3EFF090026AECF0A3EDF012
:0154E40022A5
:0355E800C2B42228
:03003B00024194EB
:10419400C0E0C083C082C0D075D000C004C005C0D8
:0341A40006C0074B
:1041A70030DF04C2DF807D30DA04C2DA807630D9AE
:1041B7003DC2D9AFFBEFFEADEB7C00E42DFFEC3E3B
:1041C70020000E900201F0A3EFF075DB11D2008002
:1041D70053FE900201E0FCA3E0FDC3EF9DFFEE9CC0
:1041E700A3F0A3EFF075DB00C200D20E803630D803
:1041F70033C2D8900268E07002A3E06022B2B490A4
:10420700026AE0FEA3E0F5EAEEF5FAA3E0FEA3E01A
:10421700FF90026BE02FF090026AE03EF08005C24B
:04422700B453DAFEB4
:10422B00D007D006D005D004D0D0D082D083D0E038
:01423B003250
:0655DC00124D85D2AF2242
:104662003004047F0180027F00200A047E01800260
:104672007E00EE5F6074E514C3950950683002361F
:10468200750D01E514131313541FAB16AA17A918BD
:10469200F582758300122096FFE514540704FEEF9D
:1046A200A806088002C333D8FC30D70575150380ED
:1046B2002F751501802AAB16AA17A91875F002E505
:1046C20014A4F58285F083122096F50DE51475F099
:1046D20002A429F9EA35F0FA900001122096F515A4
:0A46E2000514D20A22C204438F100F
:0146EC0022AB
:103DA300900200E014F0701F740AF0D20590022A0A
:103DB300E014F07012740AF0D20890026EE014F06E
:103DC3007005740AF0D20190022BA3E0FAA3E0F984
:103DD30012230F90022EA3E0FAA3E0F912230F900F
:103DE300023AA3E0FAA3E0F912230F900246A3E0FC
:103DF300FAA3E0F912230F900255A3E0FAA3E0F926
:103E030012230F90025EA3E0FAA3E0F912230F90AE
:103E1300024CA3E0FAA3E0F912230FEF600C900227
:103E23001DA3E0FAA3E0F912230F90024FA3E0FAD7
:103E3300A3E0F912230FEF600E900220A3E0FAA390
:103E4300E0F912230FD20B900229E0D3940040181B
:103E5300E014F0703030090C900223A3E0FAA3E0E1
:103E6300F912230FD20C801D900252A3E0FAA3E0B3
:103E7300F912230FEF600E900223A3E0FAA3E0F9F7
:103E830012230FD20C900205A3E0FAA3E0F9022358
:013E93000F1F
:10442500900240A3E0FAA3E0F912230F900243A300
:10443500E0FAA3E0F912230F900234A3E0FAA3E017
:10444500F912230F900208A3E0FAA3E0F912230F53
:10445500900231A3E0FAA3E0F912230FEF600C906C
:104465000211A3E0FAA3E0F912230F900237A3E0AB
:10447500FAA3E0F912230FEF600C900217A3E0FAFC
:10448500A3E0F912230F900249A3E0FAA3E0F91281
:10449500230FEF600C90021AA3E0FAA3E0F91223B0
:1044A5000F30060EC206900226A3E0FAA3E0F91229
:0344B500230F22B0
:104F1E0090020BA3E0FAA3E0F912230F90023DA337
:104F2E00E0FAA3E0F912230FEF600C900214A3E055
:104F3E00FAA3E0F912230F900258A3E0FAA3E0F9C6
:0F4F4E0012230F90025BA3E0FAA3E0F902230FF6
:10516800AF11AE10AD0FAC0E9002611222F7900293
:1051780065E513F0E4F511F510F50FF50EF513904C
:0B518800020EA3E0FAA3E0F902230FDF
:104F9C00300705C207124662300D05C20D123DA343
:104FAC00300505C205124425300805C208124F1EF3
:104FBC00300105C201125168E5112401F511E435E7
:0E4FCC0010F510E4350FF50FE4350EF50E224A
:1047F7008B238A248925EFB40C00507090480AF85F
:1048070028287302482E02483302483802483D02DE
:10481700484202484702484C02485102485602485B
:104827005B02486002486590020580359002088067
:104837003090020B802B90020E802690021180216F
:10484700900217801C900214801790021A80129011
:10485700021D800D900220800890022380039002A1
:0D48670026E523F0A3E524F0A3E525F022CB
:0755C2007B017A02796122EE
:1037680000C400DC00F701060126014A0172018845
:1037780001B801EE020B024B029302E4031003703E
:1037880003DC04160497052605C800DC00F70115BC
:103798000126014A0172019F01B801EE022A024B7B
:1037A800029302E4033F037003DC045504970526E3
:1037B80005C8067D00F701150137014A0172019F0E
:1037C80001D201EE022A026E029302E4033F03A42F
:1037D80003DC045504DD057505C8067D07490106A7
:1037E8000126014A015D018801B801EE020B024B76
:1037F800029302BA0310037003DC0416049705262B
:103808000575062006E007B80126014A01720188FD
:1038180001B801EE022A024B029302E4031003707E
:1038280003DC04550497052605C8062006E007B8FA
:1038380008AA014A0172019F01B801EE022A026E2C
:10384800029302E4033F037003DC045504DD0526FC
:1038580005C8067D06E007B808AA09B9015D018810
:1038680001B801D2020B024B029302BA0310037093
:1038780003A40416049705260575062006E00749E3
:06388800082D092D0A4D78
:102631004D02F9030000000000000000000000004E
:0640EA008F238D248B25BD
:1040F00012002EEF60037F0122E525D394004006D5
:10410000E52594114028E525D394174006E525942C
:1041100021401BE525D394274006E5259431400E28
:10412000E525D394375007E523C394F950037F0363
:1041300022E525603DC4540F75F007A4FDACF0E501
:104140002375F015A42DFFE5F03CFEE52554077C12
:10415000002FFFEC3EFEEF25E0FFEE33FE747E2FD6
:10416000F582740E3EF583E493F527740193F528E8
:104170008005E4F527F528AF267E007C017D7712C7
:1041800020E5AD241C1220F7AD07AC06AF28AE2702
:034190001248745E
:014193002209
:04265E00156E156E72
:1026620012002EEF70047F0180027F009002F9E0D9
:10267200FEB402047D0180027D00ED5F6003022949
:102682005BEEB40316E49002F7F0A3F0900302F0BD
:10269200A3F0A3F0A3F0C21602295B9002FAE0FFB6
:1026A200B4F3047E0180027E00EFB4F1047F018066
:1026B200027F00EF4E603E9002FCE0FE75F0648403
:1026C200FFEE75F00A8475F00A84ADF0E075F00A49
:1026D20084ABF075270A9002FBE02407F5289002EC
:1026E200F6E0FEC4540F240AF529752A0AEE5407AF
:1026F200F52B1253519002FAE0FFB4F3047E0180ED
:10270200027E00EFB4F2047F0180027F00EF4E7080
:10271200030227B49002FCE0FD7C007E177F70125A
:1027220020F7A86EA607E6F975F002A4FFC390038E
:1027320005E09F900304E095F05070E0FEA3E0FFF7
:102742007C007D0B1220E5E9FBFD1220F7A86E0844
:10275200A607900304E475F001122162FED3E5F0AE
:102762009BEE94004018A86E08E624F9FFE47EF080
:10277200A807088005CEC313CE13D8F9801FA86E10
:1027820008E6FF740F7E00A807088005C333CE3326
:10279200CED8F97804CEA2E713CE13D8F8A86E08E3
:1027A200F6A86E08E6FF1255D68007E4900304F0FF
:1027B200A3F0900300E0FEA3E0FFC3900303E09FB9
:1027C200900302E09E400302295512002EEF60039F
:1027D20002295B9002FDE0FBA3E0FAA3E0F990037B
:1027E20002E0FEA3E0F5828E83122096FFD3943797
:1027F20050030228F0EF241024FC5079604524FE97
:10280200700302289B1470030228B12402600302A1
:1028120028DF9002FDE0FBA3E0FAA3E0F9900302B7
:10282200E475F00112214C85F082F5831220969016
:1028320002FBF0900303E004F07098900302E004BE
:10284200F080909002FDE0FBA3E0FAA3E0F9900390
:1028520002E475F00112214C85F082F58312209674
:102862009002FCF0900303E004F0706E900302E02B
:1028720004F00227D59002FDE0FBA3E0FAA3E0F901
:10288200900302E475F00112216285F082F5831251
:1028920020969002FAF00227D5900302E475F00127
:1028A20012214CAFF09002F7F0A3EFF00227D5907F
:1028B20002F7E0FEA3E0FF4E6012900302EEF0A3E7
:1028C200EFF0E49002F7F0A3F00227D5900303E0C3
:1028D20004F07006900302E004F00227D59003038F
:1028E200E004F07006900302E004F00227D59003A2
:1028F20000E0FEA3E0FFC3900303E09F900302E029
:102902009E50569002FDE0FBA3E0FAA3E0F990038B
:1029120002E475F00112216285F082F5831220969D
:102922009002F6F09002FBE0FFA3E0FDA3E0FBA320
:10293200E0FAA3E0F9900302E475F0011221628546
:10294200F082F583122096F5269002F6E0FB124003
:09295200EA80069002F97403F01A
:05295B00056E056E226F
:0F55400090024374FFF0A37426F0A3745EF02270
:104776008B258A2689279002FDE0FBA3E0FAA3E0B9
:10478600F9E5258526838527826B7008E9658270A1
:1047960003EA6583600DE4900302F0A3F0A3F0A39F
:1047A600F0C216EF60049002FCF0ED60049002FB8C
:1047B600F0AB25AA26A927AE02AF01EF4E60047F13
:1047C6000180027F00E529452860047E0180027E83
:1047D60000EE5F60139002FDEBF0A3EAF0A3E9F0B0
:1047E600A3E528F0A3E529F0E52A60049002FAF093
:0147F60022A0
:1051E400BF02047E0180027E00BF01047D018002B3
:1051F4007D00ED4EFEBF03047D0180027D00ED4E77
:0852040060059002F9EFF022B1
:0655E2009002F9E0FF2237
:042641004103190137
:10543600C295E4FEEF1392CC000000D29500EFC3B4
:0854460013FFC2950EBE08EC35
:01544E00223B
:10544F00E4FFFEEFC313FF30CC03430780D2950078
:08545F000000C2950EBE08EB2F
:015467002222
:10513A00F07F8512514DA3EFF07F8712514DA3EFF7
:03514A00F07F896A
:10514D00C296000000C295000000D296001254369F
:0A515D0012544FD295000000C296D4
:015167002225
:03537100A3E0FDB9
:10537400C296000000C295000000D2960012543676
:0D538400AF05125436D295000000C29622EB
:0755C9007B017A0379122235
:1054680078127C037D017B007A00792A7E007F0711
:09547800122070E4900319F022E7
:1054C200EFD3941F5009EF25E044C1FF02514D7FF5
:0254D2000122B5
:10519300AC07AB05ECD3941F501CE4FD7F8E125378
:1051A30074EC25E044C0FFAD031253747D807F8E01
:0951B3001253747F00227F0122D7
:0242E100156E58
:1042E300900319E060447F8112514DA86EEFF69060
:1042F3000312E06F7003024383A86EE6F07F83121C
:10430300514DA86EEFF6A3E06F6075A86EE61251EB
:104313003AA3EFF07F8D12514D900318EFF07F8B8E
:1043230012514D900317EFF08056900311E0FF04F4
:10433300F0EFC3940A4049E4F090031904F0E4FD5C
:104343007F8E125374900312E0FD7F801253747FAB
:10435300821253717F84125371A3E0FD7F8612533F
:1043630074A3E0FD7F88125374A3E0FD7F8A125388
:1043730074A3E0FD7F8C1253747D807F8E1253747F
:03438300056E22A2
:103BAF007F8112514D900312EFF07F8312514DA37D
:103BBF00EF12513AA3EFF07F8B12514DA3EFF07F2D
:103BCF008D12514DA3EFF0E4FD7F8E1253747F1EC3
:103BDF001254C2EF64A560047F0180027F0090033E
:103BEF0012E05480FEA3E0D3945940047D0180027B
:103BFF007D00ED4EFE900314E0D394A440047D01AC
:103C0F0080027D00ED4EFE900315E0D39431400409
:103C1F007D0180027D00ED4EFE900316E0D39412DD
:103C2F0040047D0180027D00ED4EFE900317E0D32E
:103C3F00940740047D0180027D00ED4EFE90031835
:103C4F00E0D3949940047D0180027D00ED4E4F60DA
:103C5F0030782A7C007D007B007A0079237E007FFC
:103C6F00071220701254687DA57F1E12519378128F
:103C7F007C037D017B007A0079237E007F07122071
:103C8F00707DA97F901253747D807F8E1253749034
:0E3C9F00025B74FFF0A37442F0A374E1F02204
:1054E50053B1DF43B220C2B5C20A8F0C438F1022DD
:030053000248EC74
:1048EC00C0E0C083C082C0D075D000C000C001C081
:0348FC0002C003F4
:1048FF00200313D203756208751200756100E50C71
:10490F00C313F50A803AE50BC394014031E56125E5
:10491F00E0F561E50BC3940340020561D56221E523
:10492F0012C39563501A756208AB64AA65A96685B0
:10493F001282758300E5611220C305128002C20343
:03494F00750B00E5
:10495200D003D002D001D000D0D0D082D083D0E01A
:014962003222
:0955B9008B648A6589668D63220A
:0355EB00AF1222DA
:10507A002003047F0180027F00200A047E0180024F
:10508A007E00EE5F60188B168A178918EDC313F538
:10509A0009C202E4F514538FEFD2047F02227F0380
:0150AA0022E3
:104F5D002003047F0180027F00200A047E0180026D
:104F6D007E00EE5F6026538FEF750D10751508D21C
:104F7D000A438F018B168A178918ED75F008A40462
:0F4F8D00F509D202E4F514D2047F02227F032239
:1053CC002003047F0180027F00200A047E018002FA
:0C53DC007E00EE5F60037F00227F012254
:102645005502D0000000000000000000000000005E
:0826550000000100000000007C
:030023000233DEC7
:1033DE00C0E0C0F0C083C082C0D075D000C000C0B5
:1033EE0001C002C003C004C005C006C00730993B2F
:1033FE00C2999002D5E0FEA3E0FFC39002D4E09FF5
:10340E009002D3E09E501F9002D0E0FBA3E0FAA3FF
:10341E00E0F9A3E475F00112216285F082F58312C2
:10342E002096F59980059002D7E4F0209803023497
:10343E00F5C298300B09C20B9002DDE4F0A3F090B8
:10344E0002DBE0FEA3E0FFA3E0FCA3E0FDC39FECE4
:10345E009E50779002D8E0FBA3E0FAA3E0F98D82AC
:10346E008C83E5991220C39002E3E0FEA3E0FFC334
:10347E00ED9FEC9E50469002DBE0FCA3E0FDEF9D3D
:10348E00EE9C50389002E0E0FBA3E0FAA3E0F99046
:10349E0002DDE0FEA3E0FFF5828E83122096FD9002
:1034AE0002D8E0FBA3E0FAA3E0F98F828E8312200C
:1034BE00966D60089002DD74FFF0A3F09002DEE0DE
:1034CE0004F070069002DDE004F09002DBE0FEA353
:1034DE00E0FFC39002DEE09F9002DDE09E40089088
:1034EE0002DF7401F0D20BD007D006D005D004D085
:1034FE0003D002D001D000D0D0D082D083D0F0D073
:02350E00E032A9
:02554F00156ED7
:0A5551009002DFE0A86EF6FFE4F020
:03555B00056E22B8
:104963008F268E258D248C23759850438E40538E2D
:10497300FE53890FE47B04FAF9F890398F1222E78A
:1049830012222EAB26AA25A924A82312222EEFF445
:1049930004F58BE47B04FAF9F890398F1222E712BD
:1049A300222EAB26AA25A924A82312222EC3E49FD4
:1049B300FFE49EFE74019DFDE49CFC78081222C076
:1049C3008F8DC2ABD28ED2AC90024F74FFF0A37422
:0749D30055F0A3744FF02220
:1050AB009002D8EBF0A3EAF0A3E9F0A3ECF0A3EDA8
:1050BB00F09002E3E52BF0A3E52CF09002E0E5285D
:1050CB00F0A3E529F0A3E52AF0D20BE49002DFF080
:0150DB0022B2
:10520C009002D7E0701F9002D0EBF0A3EAF0A3E974
:10521C00F0E4A3F0A3F0A3ECF0A3EDF0A37401F081
:08522C00D2997F02227F0322C8
:0B5577009002D7E07002FF227F0122AB
:1045E200023CADE493A3F8E493A34003F68001F206
:1045F20008DFF48029E493A3F85407240CC8C333DA
:10460200C4540F4420C8834004F456800146F6DFA8
:10461200E4800B0102040810204080902315E47E00
:10462200019360BCA3FF543F30E509541FFEE4939D
:10463200A360010ECF54C025E060A840B8E493A364
:10464200FAE493A3F8E493A3C8C582C8CAC583CA8F
:10465200F0A3C8C582C8CAC583CADFE9DEE780BE47
:01265D00007C
:101FA000E709F608DFFA8046E709F208DFFA803E23
:101FB00088828C83E709F0A3DFFA8032E309F60810
:101FC000DFFA8078E309F208DFFA807088828C8378
:101FD000E309F0A3DFFA806489828A83E0A3F6082C
:101FE000DFFA805889828A83E0A3F208DFFA804C06
:101FF00080D280FA80C680D4806980F280338010DD
:1020000080A680EA809A80A880DA80E280CA803345
:1020100089828A83ECFAE493A3C8C582C8CCC583BD
:10202000CCF0A3C8C582C8CCC583CCDFE9DEE7808D
:102030000D89828A83E493A3F608DFF9ECFAA9F00C
:10204000EDFB2289828A83ECFAE0A3C8C582C8CC62
:10205000C583CCF0A3C8C582C8CCC583CCDFEADE7B
:10206000E880DB89828A83E493A3F208DFF980CCDD
:1020700088F0EF60010E4E60C388F0ED2402B404D6
:102080000050B9F582EB2402B4040050AF2323457D
:062090008223901FF07393
:10209600BB010CE58229F582E5833AF583E02250FF
:1020A60006E92582F8E622BBFE06E92582F8E22249
:0D20B600E58229F582E5833AF583E4932263
:1020C300F8BB010DE58229F582E5833AF583E8F053
:1020D300225006E92582C8F622BBFE05E92582C8FF
:0220E300F222E7
:1020E500EF8DF0A4A8F0CF8CF0A428CE8DF0A42E0F
:0220F500FE22C9
:1020F700BC000BBE0029EF8DF084FFADF022E4CCCD
:10210700F875F008EF2FFFEE33FEEC33FCEE9DEC95
:10211700984005FCEE9DFE0FD5F0E9E4CEFD22EDDB
:10212700F8F5F0EE8420D21CFEADF075F008EF2F25
:10213700FFED33FD4007985006D5F0F222C398FD16
:052147000FD5F0EA22B3
:10214C00C5F0F8A3E028F0C5F0F8E582158270021E
:06215C001583E038F022BB
:10216200A3F8E0C5F025F0F0E58215827002158330
:06217200E0C838F0E8228D
:10217800BB010A89828A83E0F5F0A3E02250068732
:10218800F009E71922BBFE07E3F5F009E3192289F4
:0B219800828A83E493F5F07401932227
:1021A300E88FF0A4CC8BF0A42CFCE98EF0A42CFCDB
:1021B3008AF0EDA42CFCEA8EF0A4CDA8F08BF0A459
:1021C3002DCC3825F0FDE98FF0A42CCD35F0FCEBB8
:1021D3008EF0A4FEA9F0EB8FF0A4CFC5F02ECD397D
:0F21E300FEE43CFCEAA42DCE35F0FDE43CFC22EA
:1021F20075F008758200EF2FFFEE33FECD33CDCCA4
:1022020033CCC58233C5829BED9AEC99E582984026
:102212000CF582EE9BFEED9AFDEC99FC0FD5F0D603
:10222200E4CEFBE4CDFAE4CCF9A88222B800C1B92D
:102232000059BA002DEC8BF084CFCECDFCE5F0CB6B
:10224200F97818EF2FFFEE33FEED33FDEC33FCEBA4
:1022520033FB10D703994004EB99FB0FD8E5E4F95F
:10226200FA227818EF2FFFEE33FEED33FDEC33FC4C
:10227200C933C910D7059BE99A4007EC9BFCE99A40
:10228200F90FD8E0E4C9FAE4CCFB2275F010EF2F85
:10229200FFEE33FEED33FDCC33CCC833C810D70785
:1022A2009BEC9AE899400AED9BFDEC9AFCE899F8C0
:0E22B2000FD5F0DAE4CDFBE4CCFAE4C8F92253
:104E5800C2D5E830E70FB2D5E4C39BFBE49AFAE485
:104E680099F9E498F8EC30E717B2D5124E8E122271
:104E78002EE4C39BFBE49AFAE499F9E498F88003DA
:104E880012222E30D50DE4C39FFFE49EFEE49DFD63
:044E9800E49CFC2278
:1022C000E8600FECC313FCED13FDEE13FEEF13FFFC
:0322D000D8F12220
:1022D300E86010ECA2E713FCED13FDEE13FEEF1321
:0422E300FFD8F0220E
:1022E700E493FC740193FD740293FE740393FF223D
:0C22F700ECF0A3EDF0A3EEF0A3EFF0225A
:0C230300A42582F582E5F03583F58322E5
:06230F008A838982E47359
:00000001FF
